{
  "contractName": "EHR_Certify",
  "abi": [
    {
      "inputs": [],
      "stateMutability": "nonpayable",
      "type": "constructor"
    },
    {
      "anonymous": false,
      "inputs": [
        {
          "indexed": true,
          "internalType": "bytes32",
          "name": "hash",
          "type": "bytes32"
        },
        {
          "indexed": true,
          "internalType": "address",
          "name": "doctor",
          "type": "address"
        },
        {
          "indexed": true,
          "internalType": "address",
          "name": "granter",
          "type": "address"
        }
      ],
      "name": "AccessGranted",
      "type": "event"
    },
    {
      "anonymous": false,
      "inputs": [
        {
          "indexed": true,
          "internalType": "bytes32",
          "name": "hash",
          "type": "bytes32"
        },
        {
          "indexed": true,
          "internalType": "address",
          "name": "doctor",
          "type": "address"
        },
        {
          "indexed": false,
          "internalType": "uint256",
          "name": "timestamp",
          "type": "uint256"
        }
      ],
      "name": "EmergencyAccess",
      "type": "event"
    },
    {
      "anonymous": false,
      "inputs": [
        {
          "indexed": true,
          "internalType": "bytes32",
          "name": "hash",
          "type": "bytes32"
        },
        {
          "indexed": true,
          "internalType": "address",
          "name": "owner",
          "type": "address"
        }
      ],
      "name": "RecordCertified",
      "type": "event"
    },
    {
      "inputs": [
        {
          "internalType": "bytes32",
          "name": "",
          "type": "bytes32"
        },
        {
          "internalType": "address",
          "name": "",
          "type": "address"
        }
      ],
      "name": "accessList",
      "outputs": [
        {
          "internalType": "bool",
          "name": "isValid",
          "type": "bool"
        },
        {
          "internalType": "uint256",
          "name": "expiryTime",
          "type": "uint256"
        },
        {
          "internalType": "uint8",
          "name": "accessLevel",
          "type": "uint8"
        }
      ],
      "stateMutability": "view",
      "type": "function",
      "constant": true
    },
    {
      "inputs": [
        {
          "internalType": "address",
          "name": "",
          "type": "address"
        }
      ],
      "name": "isVerifiedDoctor",
      "outputs": [
        {
          "internalType": "bool",
          "name": "",
          "type": "bool"
        }
      ],
      "stateMutability": "view",
      "type": "function",
      "constant": true
    },
    {
      "inputs": [],
      "name": "owner",
      "outputs": [
        {
          "internalType": "address",
          "name": "",
          "type": "address"
        }
      ],
      "stateMutability": "view",
      "type": "function",
      "constant": true
    },
    {
      "inputs": [
        {
          "internalType": "bytes32",
          "name": "",
          "type": "bytes32"
        }
      ],
      "name": "recordOwner",
      "outputs": [
        {
          "internalType": "address",
          "name": "",
          "type": "address"
        }
      ],
      "stateMutability": "view",
      "type": "function",
      "constant": true
    },
    {
      "inputs": [
        {
          "internalType": "bytes32",
          "name": "_hash",
          "type": "bytes32"
        }
      ],
      "name": "recordHash",
      "outputs": [],
      "stateMutability": "nonpayable",
      "type": "function"
    },
    {
      "inputs": [
        {
          "internalType": "bytes32",
          "name": "_hash",
          "type": "bytes32"
        },
        {
          "internalType": "address",
          "name": "_doctorAddress",
          "type": "address"
        }
      ],
      "name": "grantAccess",
      "outputs": [],
      "stateMutability": "nonpayable",
      "type": "function"
    },
    {
      "inputs": [
        {
          "internalType": "bytes32",
          "name": "_hash",
          "type": "bytes32"
        },
        {
          "internalType": "address",
          "name": "_doctorAddress",
          "type": "address"
        },
        {
          "internalType": "uint256",
          "name": "_duration",
          "type": "uint256"
        },
        {
          "internalType": "uint8",
          "name": "_accessLevel",
          "type": "uint8"
        }
      ],
      "name": "grantTimeBasedAccess",
      "outputs": [],
      "stateMutability": "nonpayable",
      "type": "function"
    },
    {
      "inputs": [
        {
          "internalType": "bytes32",
          "name": "_hash",
          "type": "bytes32"
        },
        {
          "internalType": "address",
          "name": "_userAddress",
          "type": "address"
        }
      ],
      "name": "checkAccess",
      "outputs": [
        {
          "internalType": "bool",
          "name": "",
          "type": "bool"
        }
      ],
      "stateMutability": "view",
      "type": "function",
      "constant": true
    },
    {
      "inputs": [
        {
          "internalType": "bytes32",
          "name": "_hash",
          "type": "bytes32"
        }
      ],
      "name": "verifyRecord",
      "outputs": [
        {
          "internalType": "bool",
          "name": "",
          "type": "bool"
        }
      ],
      "stateMutability": "view",
      "type": "function",
      "constant": true
    },
    {
      "inputs": [
        {
          "internalType": "bytes32",
          "name": "_hash",
          "type": "bytes32"
        },
        {
          "internalType": "address",
          "name": "_doctorAddress",
          "type": "address"
        }
      ],
      "name": "revokeAccess",
      "outputs": [],
      "stateMutability": "nonpayable",
      "type": "function"
    },
    {
      "inputs": [
        {
          "internalType": "address",
          "name": "_doctorAddress",
          "type": "address"
        }
      ],
      "name": "verifyDoctor",
      "outputs": [],
      "stateMutability": "nonpayable",
      "type": "function"
    },
    {
      "inputs": [
        {
          "internalType": "address",
          "name": "_doctorAddress",
          "type": "address"
        }
      ],
      "name": "unverifyDoctor",
      "outputs": [],
      "stateMutability": "nonpayable",
      "type": "function"
    },
    {
      "inputs": [
        {
          "internalType": "bytes32",
          "name": "_hash",
          "type": "bytes32"
        }
      ],
      "name": "emergencyAccess",
      "outputs": [],
      "stateMutability": "nonpayable",
      "type": "function"
    }
  ],
  "bytecode": "0x608060405234801561001057600080fd5b50336000806101000a81548173ffffffffffffffffffffffffffffffffffffffff021916908373ffffffffffffffffffffffffffffffffffffffff1602179055506114e9806100606000396000f3fe608060405234801561001057600080fd5b50600436106100cf5760003560e01c80638d53b2081161008c578063a6d3028a11610066578063a6d3028a14610222578063d80cb05c14610254578063ece1183614610270578063ee92c9131461028c576100cf565b80638d53b208146101cc5780638da5cb5b146101e857806392f7609014610206576100cf565b80631bf9d751146100d457806336677f34146101045780633e1fd0da1461012057806340554c3a146101505780634d408bcf1461016c57806376f7ffb51461019c575b600080fd5b6100ee60048036038101906100e99190610d8f565b6102a8565b6040516100fb91906111d5565b60405180910390f35b61011e60048036038101906101199190610db8565b6102c8565b005b61013a60048036038101906101359190610de1565b6103a6565b60405161014791906111d5565b60405180910390f35b61016a60048036038101906101659190610de1565b610411565b005b61018660048036038101906101819190610db8565b610641565b60405161019391906111d5565b60405180910390f35b6101b660048036038101906101b19190610db8565b6106ad565b6040516101c391906111ba565b60405180910390f35b6101e660048036038101906101e19190610de1565b6106e0565b005b6101f06107f1565b6040516101fd91906111ba565b60405180910390f35b610220600480360381019061021b9190610d8f565b610815565b005b61023c60048036038101906102379190610de1565b6108fe565b60405161024b939291906111f0565b60405180910390f35b61026e60048036038101906102699190610d8f565b61094f565b005b61028a60048036038101906102859190610db8565b610a38565b005b6102a660048036038101906102a19190610e1d565b610b73565b005b60036020528060005260406000206000915054906101000a900460ff1681565b600360003373ffffffffffffffffffffffffffffffffffffffff1673ffffffffffffffffffffffffffffffffffffffff16815260200190815260200160002060009054906101000a900460ff16610354576040517f08c379a000000000000000000000000000000000000000000000000000000000815260040161034b906112a7565b60405180910390fd5b3373ffffffffffffffffffffffffffffffffffffffff16817fa54b2eb14a8b5c104f326392ffb440e1329610879cbfab0952ff645f588972854260405161039b9190611347565b60405180910390a350565b60006002600084815260200190815260200160002060008373ffffffffffffffffffffffffffffffffffffffff1673ffffffffffffffffffffffffffffffffffffffff16815260200190815260200160002060000160009054906101000a900460ff16905092915050565b3373ffffffffffffffffffffffffffffffffffffffff166001600084815260200190815260200160002060009054906101000a900473ffffffffffffffffffffffffffffffffffffffff1673ffffffffffffffffffffffffffffffffffffffff16146104b2576040517f08c379a00000000000000000000000000000000000000000000000000000000081526004016104a990611327565b60405180910390fd5b3373ffffffffffffffffffffffffffffffffffffffff168173ffffffffffffffffffffffffffffffffffffffff161415610521576040517f08c379a000000000000000000000000000000000000000000000000000000000815260040161051890611287565b60405180910390fd5b604051806060016040528060011515815260200160008152602001600160ff168152506002600084815260200190815260200160002060008373ffffffffffffffffffffffffffffffffffffffff1673ffffffffffffffffffffffffffffffffffffffff16815260200190815260200160002060008201518160000160006101000a81548160ff0219169083151502179055506020820151816001015560408201518160020160006101000a81548160ff021916908360ff1602179055509050503373ffffffffffffffffffffffffffffffffffffffff168173ffffffffffffffffffffffffffffffffffffffff16837f7aeffe35f64b55a7c424c5fccc3fba0f3ac4ebd764cc737855b8734834458f2b60405160405180910390a45050565b60008073ffffffffffffffffffffffffffffffffffffffff166001600084815260200190815260200160002060009054906101000a900473ffffffffffffffffffffffffffffffffffffffff1673ffffffffffffffffffffffffffffffffffffffff1614159050919050565b60016020528060005260406000206000915054906101000a900473ffffffffffffffffffffffffffffffffffffffff1681565b3373ffffffffffffffffffffffffffffffffffffffff166001600084815260200190815260200160002060009054906101000a900473ffffffffffffffffffffffffffffffffffffffff1673ffffffffffffffffffffffffffffffffffffffff1614610781576040517f08c379a000000000000000000000000000000000000000000000000000000000815260040161077890611307565b60405180910390fd5b60006002600084815260200190815260200160002060008373ffffffffffffffffffffffffffffffffffffffff1673ffffffffffffffffffffffffffffffffffffffff16815260200190815260200160002060000160006101000a81548160ff0219169083151502179055505050565b60008054906101000a900473ffffffffffffffffffffffffffffffffffffffff1681565b60008054906101000a900473ffffffffffffffffffffffffffffffffffffffff1673ffffffffffffffffffffffffffffffffffffffff163373ffffffffffffffffffffffffffffffffffffffff16146108a3576040517f08c379a000000000000000000000000000000000000000000000000000000000815260040161089a90611267565b60405180910390fd5b6000600360008373ffffffffffffffffffffffffffffffffffffffff1673ffffffffffffffffffffffffffffffffffffffff16815260200190815260200160002060006101000a81548160ff02191690831515021790555050565b6002602052816000526040600020602052806000526040600020600091509150508060000160009054906101000a900460ff16908060010154908060020160009054906101000a900460ff16905083565b60008054906101000a900473ffffffffffffffffffffffffffffffffffffffff1673ffffffffffffffffffffffffffffffffffffffff163373ffffffffffffffffffffffffffffffffffffffff16146109dd576040517f08c379a00000000000000000000000000000000000000000000000000000000081526004016109d4906112c7565b60405180910390fd5b6001600360008373ffffffffffffffffffffffffffffffffffffffff1673ffffffffffffffffffffffffffffffffffffffff16815260200190815260200160002060006101000a81548160ff02191690831515021790555050565b600073ffffffffffffffffffffffffffffffffffffffff166001600083815260200190815260200160002060009054906101000a900473ffffffffffffffffffffffffffffffffffffffff1673ffffffffffffffffffffffffffffffffffffffff1614610ada576040517f08c379a0000000000000000000000000000000000000000000000000000000008152600401610ad190611227565b60405180910390fd5b336001600083815260200190815260200160002060006101000a81548173ffffffffffffffffffffffffffffffffffffffff021916908373ffffffffffffffffffffffffffffffffffffffff1602179055503373ffffffffffffffffffffffffffffffffffffffff16817fa6929dd02f9b40a4c8db4056f10c1f2a4bfaaffc7ed4a1f37ef60a855bfa3ae760405160405180910390a350565b3373ffffffffffffffffffffffffffffffffffffffff166001600086815260200190815260200160002060009054906101000a900473ffffffffffffffffffffffffffffffffffffffff1673ffffffffffffffffffffffffffffffffffffffff1614610c14576040517f08c379a0000000000000000000000000000000000000000000000000000000008152600401610c0b906112e7565b60405180910390fd5b60018160ff1610158015610c2c575060038160ff1611155b610c6b576040517f08c379a0000000000000000000000000000000000000000000000000000000008152600401610c6290611247565b60405180910390fd5b60405180606001604052806001151581526020018342610c8b9190611373565b81526020018260ff168152506002600086815260200190815260200160002060008573ffffffffffffffffffffffffffffffffffffffff1673ffffffffffffffffffffffffffffffffffffffff16815260200190815260200160002060008201518160000160006101000a81548160ff0219169083151502179055506020820151816001015560408201518160020160006101000a81548160ff021916908360ff16021790555090505050505050565b600081359050610d4a81611457565b92915050565b600081359050610d5f8161146e565b92915050565b600081359050610d7481611485565b92915050565b600081359050610d898161149c565b92915050565b600060208284031215610da157600080fd5b6000610daf84828501610d3b565b91505092915050565b600060208284031215610dca57600080fd5b6000610dd884828501610d50565b91505092915050565b60008060408385031215610df457600080fd5b6000610e0285828601610d50565b9250506020610e1385828601610d3b565b9150509250929050565b60008060008060808587031215610e3357600080fd5b6000610e4187828801610d50565b9450506020610e5287828801610d3b565b9350506040610e6387828801610d65565b9250506060610e7487828801610d7a565b91505092959194509250565b610e89816113c9565b82525050565b610e98816113db565b82525050565b6000610eab601c83611362565b91507f4548523a204861736820616c7265616479206365727469666965642e000000006000830152602082019050919050565b6000610eeb601483611362565b91507f496e76616c696420616363657373206c6576656c0000000000000000000000006000830152602082019050919050565b6000610f2b602e83611362565b91507f4f6e6c792073797374656d2061646d696e6973747261746f722063616e20756e60008301527f76657269667920646f63746f72730000000000000000000000000000000000006020830152604082019050919050565b6000610f91602183611362565b91507f4548523a2043616e6e6f74206772616e742061636365737320746f2073656c6660008301527f2e000000000000000000000000000000000000000000000000000000000000006020830152604082019050919050565b6000610ff7602e83611362565b91507f4f6e6c7920766572696669656420646f63746f72732063616e2075736520656d60008301527f657267656e6379206163636573730000000000000000000000000000000000006020830152604082019050919050565b600061105d602c83611362565b91507f4f6e6c792073797374656d2061646d696e6973747261746f722063616e20766560008301527f7269667920646f63746f727300000000000000000000000000000000000000006020830152604082019050919050565b60006110c3601b83611362565b91507f4f6e6c79206f776e65722063616e206772616e742061636365737300000000006000830152602082019050919050565b6000611103601c83611362565b91507f4f6e6c79206f776e65722063616e207265766f6b6520616363657373000000006000830152602082019050919050565b6000611143602583611362565b91507f4548523a204f6e6c7920746865206f776e65722063616e206772616e7420616360008301527f636573732e0000000000000000000000000000000000000000000000000000006020830152604082019050919050565b6111a581611411565b82525050565b6111b48161141b565b82525050565b60006020820190506111cf6000830184610e80565b92915050565b60006020820190506111ea6000830184610e8f565b92915050565b60006060820190506112056000830186610e8f565b611212602083018561119c565b61121f60408301846111ab565b949350505050565b6000602082019050818103600083015261124081610e9e565b9050919050565b6000602082019050818103600083015261126081610ede565b9050919050565b6000602082019050818103600083015261128081610f1e565b9050919050565b600060208201905081810360008301526112a081610f84565b9050919050565b600060208201905081810360008301526112c081610fea565b9050919050565b600060208201905081810360008301526112e081611050565b9050919050565b60006020820190508181036000830152611300816110b6565b9050919050565b60006020820190508181036000830152611320816110f6565b9050919050565b6000602082019050818103600083015261134081611136565b9050919050565b600060208201905061135c600083018461119c565b92915050565b600082825260208201905092915050565b600061137e82611411565b915061138983611411565b9250827fffffffffffffffffffffffffffffffffffffffffffffffffffffffffffffffff038211156113be576113bd611428565b5b828201905092915050565b60006113d4826113f1565b9050919050565b60008115159050919050565b6000819050919050565b600073ffffffffffffffffffffffffffffffffffffffff82169050919050565b6000819050919050565b600060ff82169050919050565b7f4e487b7100000000000000000000000000000000000000000000000000000000600052601160045260246000fd5b611460816113c9565b811461146b57600080fd5b50565b611477816113e7565b811461148257600080fd5b50565b61148e81611411565b811461149957600080fd5b50565b6114a58161141b565b81146114b057600080fd5b5056fea26469706673582212203f0e6070eafe26df30f38abe6f57cd0a9b58e1ec9bf83b2163060805bc5631ca64736f6c63430008000033",
  "immutableReferences": {},
  "source": "// SPDX-License-Identifier: MIT\r\npragma solidity ^0.8.0;\r\n\r\n/**\r\n * @title EHR_Certify - Hp ng chng thc \r\n * @dev Contract ny qun l vic chng thc (ghi Hash) v cp quyn truy cp (phn quyn) \r\n * cho H s Sc khe in t (Electronic Health Record - EHR).\r\n * @notice c s dng :\r\n * - Lu tr bng chng v s tn ti ca h s trn blockchain\r\n * - Qun l quyn truy cp ca bc s i vi h s\r\n * - m bo tnh ring t v bo mt ca thng tin y t\r\n */\r\ncontract EHR_Certify {\r\n    // Bin lu tr a ch ca qun tr vin h thng (ngi trin khai contract)\r\n    address public owner;\r\n\r\n    // Constructor  khi to qun tr vin h thng\r\n    constructor() {\r\n        owner = msg.sender;\r\n    }\r\n\r\n    // 1. LU TR D LIU \r\n    // Cc bin trng thi c lu tr vnh vin trn blockchain\r\n\r\n    // nh x: Hash ca h s (bytes32) -> a ch ca Bnh nhn (ch s hu)\r\n    mapping(bytes32 => address) public recordOwner;\r\n\r\n    // Thm struct cho quyn truy cp c thi hn\r\n    struct AccessGrant {\r\n        bool isValid;        // Trng thi hiu lc ca quyn\r\n        uint256 expiryTime; // Thi im ht hn\r\n        uint8 accessLevel;  // Cp  quyn truy cp\r\n    }\r\n\r\n    // nh x: Hash ca h s -> a ch Bc s -> Trng thi (c php/khng)\r\n    // (bytes32 => (address => bool))\r\n    mapping(bytes32 => mapping(address => AccessGrant)) public accessList;\r\n\r\n    /**\r\n     * @notice Lu tr danh sch bc s  c xc minh v c php tham gia h thng\r\n     * @dev nh x a ch v ca bc s vi trng thi xc thc ca h\r\n     * true:  c xc minh v c th tham gia h thng\r\n     * false: Cha c xc minh hoc  b hy xc minh\r\n     */\r\n    mapping(address => bool) public isVerifiedDoctor;\r\n\r\n    // 2. S KIN \r\n    // Thng bo khi c h s mi c ghi\r\n    event RecordCertified(bytes32 indexed hash, address indexed owner);\r\n    // Thng bo khi c quyn c cp\r\n    event AccessGranted(bytes32 indexed hash, address indexed doctor, address indexed granter);\r\n    /**\r\n     * @dev S kin c pht ra khi c truy cp khn cp vo h s\r\n     * @param hash Hash ca h s c truy cp\r\n     * @param doctor a ch ca bc s thc hin truy cp khn cp\r\n     * @param timestamp Thi im truy cp\r\n     * @notice S kin ny gip:\r\n     * - Ghi li mi ln truy cp khn cp\r\n     * - Thng bo cho ch s hu h s\r\n     * - To du vt kim ton cho mc ch theo di\r\n     */\r\n    event EmergencyAccess(\r\n        bytes32 indexed hash,\r\n        address indexed doctor,\r\n        uint256 timestamp\r\n    );\r\n\r\n\r\n    // 3. CC HM CHC NNG (FUNCTIONS)\r\n\r\n    /**\r\n     * @dev Bnh nhn gi hm ny  ghi chng thc Hash ca h s.\r\n     * @param _hash Hash SHA-256 (dng bytes32) ca file h s.\r\n     */\r\n    function recordHash(bytes32 _hash) public {\r\n        // m bo Hash ny cha c ai ng k\r\n        require(recordOwner[_hash] == address(0), \"EHR: Hash already certified.\");\r\n\r\n        // Gn ngi gi (Bnh nhn) lm ch s hu\r\n        recordOwner[_hash] = msg.sender;\r\n        emit RecordCertified(_hash, msg.sender);\r\n    }\r\n\r\n    /**\r\n     * @dev Bnh nhn (ch s hu) gi hm ny  cp quyn cho Bc s.\r\n     * @param _hash Hash ca h s mun chia s.\r\n     * @param _doctorAddress a ch v ca Bc s c cp quyn.\r\n     */\r\n    function grantAccess(bytes32 _hash, address _doctorAddress) public {\r\n        // Ch ch s hu (Bnh nhn) mi c quyn cp php\r\n        require(recordOwner[_hash] == msg.sender, \"EHR: Only the owner can grant access.\");\r\n        // Bc s khng th t cp quyn cho mnh\r\n        require(_doctorAddress != msg.sender, \"EHR: Cannot grant access to self.\");\r\n\r\n        accessList[_hash][_doctorAddress] = AccessGrant({\r\n            isValid: true,\r\n            expiryTime: 0,\r\n            accessLevel: 1\r\n        });\r\n        emit AccessGranted(_hash, _doctorAddress, msg.sender);\r\n    }\r\n\r\n    /**\r\n     * @dev Bnh nhn (ch s hu) gi hm ny  cp quyn c thi hn cho Bc s.\r\n     * @param _hash Hash ca h s mun chia s.\r\n     * @param _doctorAddress a ch v ca Bc s c cp quyn.\r\n     * @param _duration Thi gian cp quyn (tnh bng giy).\r\n     * @param _accessLevel Cp  truy cp (1: c, 2: Ghi, 3: Qun tr).\r\n     */\r\n    function grantTimeBasedAccess(\r\n        bytes32 _hash,\r\n        address _doctorAddress,\r\n        uint256 _duration,\r\n        uint8 _accessLevel\r\n    ) public {\r\n        require(recordOwner[_hash] == msg.sender, \"Only owner can grant access\");\r\n        require(_accessLevel >= 1 && _accessLevel <= 3, \"Invalid access level\");\r\n        \r\n        accessList[_hash][_doctorAddress] = AccessGrant({\r\n            isValid: true,\r\n            expiryTime: block.timestamp + _duration,\r\n            accessLevel: _accessLevel\r\n        });\r\n    }\r\n\r\n    /**\r\n     * @dev Bt k ai cng c th gi hm ny  kim tra quyn truy cp (Hm View).\r\n     * @param _hash Hash ca h s cn kim tra.\r\n     * @param _userAddress a ch ca ngi dng (Bc s) cn kim tra.\r\n     * @return bool Tr v true nu ngi dng c quyn, ngc li false.\r\n     */\r\n    function checkAccess(bytes32 _hash, address _userAddress) public view returns (bool) {\r\n        // Kim tra xem ngi  c trong danh sch cp quyn khng\r\n        return accessList[_hash][_userAddress].isValid;\r\n    }\r\n\r\n    /**\r\n     * @dev Hm tin ch  xc minh tnh ton vn v s tn ti.\r\n     * @param _hash Hash ca h s cn kim tra.\r\n     * @return bool Tr v true nu Hash  tn ti trn chui.\r\n     */\r\n    function verifyRecord(bytes32 _hash) public view returns (bool) {\r\n        return (recordOwner[_hash] != address(0));\r\n    }\r\n\r\n    /**\r\n     * @dev Hm thu hi quyn truy cp ca Bc s i vi h s.\r\n     * @param _hash Hash ca h s.\r\n     * @param _doctorAddress a ch ca Bc s.\r\n     */\r\n    function revokeAccess(bytes32 _hash, address _doctorAddress) public {\r\n        require(recordOwner[_hash] == msg.sender, \"Only owner can revoke access\");\r\n        accessList[_hash][_doctorAddress].isValid = false;\r\n    }\r\n\r\n    /**\r\n     * @dev Xc minh v cho php mt bc s tham gia vo h thng\r\n     * @param _doctorAddress a ch v ca bc s cn xc minh\r\n     * @notice Ch qun tr vin (owner) mi c quyn xc minh bc s. \r\n     * Quy trnh xc minh bc s bao gm:\r\n     * 1. Kim tra giy php hnh ngh y\r\n     * 2. Xc minh danh tnh v chuyn mn\r\n     * 3. Cp quyn tham gia h thng\r\n     * Sau khi c xc minh, bc s c th:\r\n     * - c bnh nhn cp quyn xem h s\r\n     * - S dng chc nng truy cp khn cp khi cn\r\n     */\r\n    function verifyDoctor(address _doctorAddress) public {\r\n        require(msg.sender == owner, \"Only system administrator can verify doctors\");\r\n        isVerifiedDoctor[_doctorAddress] = true;\r\n    }\r\n\r\n    /**\r\n     * @dev Hy t cch tham gia h thng ca mt bc s\r\n     * @param _doctorAddress a ch v ca bc s cn hy xc minh\r\n     * @notice Ch qun tr vin (owner) mi c quyn hy xc minh bc s.\r\n     * Vic hy xc minh c th c thc hin trong cc trng hp:\r\n     * - Bc s vi phm quy nh ca h thng\r\n     * - Giy php hnh ngh ht hn hoc b thu hi\r\n     * - Bc s t nguyn ri khi h thng\r\n     * Sau khi b hy xc minh, bc s s:\r\n     * - Khng th s dng chc nng truy cp khn cp\r\n     * - Cc quyn truy cp hin c vn gi nguyn (cn c thu hi ring nu mun)\r\n     */\r\n    function unverifyDoctor(address _doctorAddress) public {\r\n        require(msg.sender == owner, \"Only system administrator can unverify doctors\");\r\n        isVerifiedDoctor[_doctorAddress] = false;\r\n    }\r\n\r\n    /**\r\n     * @dev Hm truy cp khn cp, cho php bc s  c xc minh truy cp h s trong trng hp cp cu\r\n     * @param _hash Hash ca h s cn truy cp\r\n     * @notice Chc nng ny c s dng trong cc trng hp:\r\n     * - Cp cu y t khn cp\r\n     * - Bnh nhn bt tnh hoc khng th t cp quyn\r\n     * - Tnh hung nguy cp cn xem thng tin y t ngay lp tc\r\n     * - Bnh nhn cha kp cp quyn nhng cn c iu tr gp\r\n     * @notice  m bo tnh minh bch v trch nhim:\r\n     * - Ch bc s  c xc minh mi c th s dng\r\n     * - Mi ln truy cp khn cp u c ghi li\r\n     * - Ch s hu h s s c thng bo\r\n     * - Bc s phi chu trch nhim v vic s dng chc nng ny\r\n     */\r\n    function emergencyAccess(bytes32 _hash) public {\r\n        // Kim tra xem ngi gi c phi l bc s  c xc minh\r\n        require(isVerifiedDoctor[msg.sender], \"Only verified doctors can use emergency access\");\r\n        \r\n        // Ghi log v thng bo cho ch s hu v vic truy cp khn cp\r\n        emit EmergencyAccess(_hash, msg.sender, block.timestamp);\r\n    }\r\n}",
  "sourcePath": "D:\\ATBM\\ehrApp\\contracts\\EHR_Certify.sol",
  "compiler": {
    "name": "solc",
    "version": "0.8.0+commit.c7dfd78e.Emscripten.clang"
  },
  "schemaVersion": "3.4.16",
  "updatedAt": "2025-10-31T17:38:10.227Z",
  "networkType": "ethereum",
  "devdoc": {
    "details": "Contract ny qun l vic chng thc (ghi Hash) v cp quyn truy cp (phn quyn)  cho H s Sc khe in t (Electronic Health Record - EHR).",
    "events": {
      "EmergencyAccess(bytes32,address,uint256)": {
        "details": "S kin c pht ra khi c truy cp khn cp vo h s",
        "params": {
          "doctor": "a ch ca bc s thc hin truy cp khn cp",
          "hash": "Hash ca h s c truy cp",
          "timestamp": "Thi im truy cp"
        }
      }
    },
    "kind": "dev",
    "methods": {
      "checkAccess(bytes32,address)": {
        "details": "Bt k ai cng c th gi hm ny  kim tra quyn truy cp (Hm View).",
        "params": {
          "_hash": "Hash ca h s cn kim tra.",
          "_userAddress": "a ch ca ngi dng (Bc s) cn kim tra."
        },
        "returns": {
          "_0": "bool Tr v true nu ngi dng c quyn, ngc li false."
        }
      },
      "emergencyAccess(bytes32)": {
        "details": "Hm truy cp khn cp, cho php bc s  c xc minh truy cp h s trong trng hp cp cu",
        "params": {
          "_hash": "Hash ca h s cn truy cp"
        }
      },
      "grantAccess(bytes32,address)": {
        "details": "Bnh nhn (ch s hu) gi hm ny  cp quyn cho Bc s.",
        "params": {
          "_doctorAddress": "a ch v ca Bc s c cp quyn.",
          "_hash": "Hash ca h s mun chia s."
        }
      },
      "grantTimeBasedAccess(bytes32,address,uint256,uint8)": {
        "details": "Bnh nhn (ch s hu) gi hm ny  cp quyn c thi hn cho Bc s.",
        "params": {
          "_accessLevel": "Cp  truy cp (1: c, 2: Ghi, 3: Qun tr).",
          "_doctorAddress": "a ch v ca Bc s c cp quyn.",
          "_duration": "Thi gian cp quyn (tnh bng giy).",
          "_hash": "Hash ca h s mun chia s."
        }
      },
      "recordHash(bytes32)": {
        "details": "Bnh nhn gi hm ny  ghi chng thc Hash ca h s.",
        "params": {
          "_hash": "Hash SHA-256 (dng bytes32) ca file h s."
        }
      },
      "revokeAccess(bytes32,address)": {
        "details": "Hm thu hi quyn truy cp ca Bc s i vi h s.",
        "params": {
          "_doctorAddress": "a ch ca Bc s.",
          "_hash": "Hash ca h s."
        }
      },
      "unverifyDoctor(address)": {
        "details": "Hy t cch tham gia h thng ca mt bc s",
        "params": {
          "_doctorAddress": "a ch v ca bc s cn hy xc minh"
        }
      },
      "verifyDoctor(address)": {
        "details": "Xc minh v cho php mt bc s tham gia vo h thng",
        "params": {
          "_doctorAddress": "a ch v ca bc s cn xc minh"
        }
      },
      "verifyRecord(bytes32)": {
        "details": "Hm tin ch  xc minh tnh ton vn v s tn ti.",
        "params": {
          "_hash": "Hash ca h s cn kim tra."
        },
        "returns": {
          "_0": "bool Tr v true nu Hash  tn ti trn chui."
        }
      }
    },
    "stateVariables": {
      "isVerifiedDoctor": {
        "details": "nh x a ch v ca bc s vi trng thi xc thc ca h true:  c xc minh v c th tham gia h thng false: Cha c xc minh hoc  b hy xc minh"
      }
    },
    "title": "EHR_Certify - Hp ng chng thc ",
    "version": 1
  },
  "userdoc": {
    "events": {
      "EmergencyAccess(bytes32,address,uint256)": {
        "notice": "S kin ny gip: - Ghi li mi ln truy cp khn cp - Thng bo cho ch s hu h s - To du vt kim ton cho mc ch theo di"
      }
    },
    "kind": "user",
    "methods": {
      "emergencyAccess(bytes32)": {
        "notice": "Chc nng ny c s dng trong cc trng hp: - Cp cu y t khn cp - Bnh nhn bt tnh hoc khng th t cp quyn - Tnh hung nguy cp cn xem thng tin y t ngay lp tc - Bnh nhn cha kp cp quyn nhng cn c iu tr gp m bo tnh minh bch v trch nhim: - Ch bc s  c xc minh mi c th s dng - Mi ln truy cp khn cp u c ghi li - Ch s hu h s s c thng bo - Bc s phi chu trch nhim v vic s dng chc nng ny"
      },
      "isVerifiedDoctor(address)": {
        "notice": "Lu tr danh sch bc s  c xc minh v c php tham gia h thng"
      },
      "unverifyDoctor(address)": {
        "notice": "Ch qun tr vin (owner) mi c quyn hy xc minh bc s. Vic hy xc minh c th c thc hin trong cc trng hp: - Bc s vi phm quy nh ca h thng - Giy php hnh ngh ht hn hoc b thu hi - Bc s t nguyn ri khi h thng Sau khi b hy xc minh, bc s s: - Khng th s dng chc nng truy cp khn cp - Cc quyn truy cp hin c vn gi nguyn (cn c thu hi ring nu mun)"
      },
      "verifyDoctor(address)": {
        "notice": "Ch qun tr vin (owner) mi c quyn xc minh bc s.  Quy trnh xc minh bc s bao gm: 1. Kim tra giy php hnh ngh y 2. Xc minh danh tnh v chuyn mn 3. Cp quyn tham gia h thng Sau khi c xc minh, bc s c th: - c bnh nhn cp quyn xem h s - S dng chc nng truy cp khn cp khi cn"
      }
    },
    "notice": "c s dng : - Lu tr bng chng v s tn ti ca h s trn blockchain - Qun l quyn truy cp ca bc s i vi h s - m bo tnh ring t v bo mt ca thng tin y t",
    "version": 1
  }
}