{
  "contractName": "MediChain",
  "abi": [
    {
      "anonymous": false,
      "inputs": [
        {
          "indexed": true,
          "internalType": "address",
          "name": "patient",
          "type": "address"
        },
        {
          "indexed": true,
          "internalType": "address",
          "name": "receiver",
          "type": "address"
        },
        {
          "indexed": false,
          "internalType": "uint256",
          "name": "timestamp",
          "type": "uint256"
        }
      ],
      "name": "AccessGranted",
      "type": "event"
    },
    {
      "anonymous": false,
      "inputs": [
        {
          "indexed": true,
          "internalType": "address",
          "name": "patient",
          "type": "address"
        },
        {
          "indexed": true,
          "internalType": "address",
          "name": "receiver",
          "type": "address"
        },
        {
          "indexed": false,
          "internalType": "uint256",
          "name": "timestamp",
          "type": "uint256"
        }
      ],
      "name": "AccessRevoked",
      "type": "event"
    },
    {
      "anonymous": false,
      "inputs": [
        {
          "indexed": true,
          "internalType": "address",
          "name": "patient",
          "type": "address"
        },
        {
          "indexed": false,
          "internalType": "uint256",
          "name": "recordId",
          "type": "uint256"
        },
        {
          "indexed": false,
          "internalType": "string",
          "name": "fileName",
          "type": "string"
        },
        {
          "indexed": false,
          "internalType": "uint256",
          "name": "timestamp",
          "type": "uint256"
        }
      ],
      "name": "EHRRegistered",
      "type": "event"
    },
    {
      "inputs": [
        {
          "internalType": "address",
          "name": "",
          "type": "address"
        },
        {
          "internalType": "address",
          "name": "",
          "type": "address"
        }
      ],
      "name": "patientAccessGrants",
      "outputs": [
        {
          "internalType": "bytes",
          "name": "encryptedSymmetricKey",
          "type": "bytes"
        },
        {
          "internalType": "uint256",
          "name": "grantTimestamp",
          "type": "uint256"
        },
        {
          "internalType": "bool",
          "name": "revoked",
          "type": "bool"
        }
      ],
      "stateMutability": "view",
      "type": "function",
      "constant": true
    },
    {
      "inputs": [
        {
          "internalType": "bytes32",
          "name": "_dataHash",
          "type": "bytes32"
        },
        {
          "internalType": "string",
          "name": "_offChainAddress",
          "type": "string"
        },
        {
          "internalType": "string",
          "name": "_fileName",
          "type": "string"
        }
      ],
      "name": "registerEHR",
      "outputs": [],
      "stateMutability": "nonpayable",
      "type": "function"
    },
    {
      "inputs": [
        {
          "internalType": "address",
          "name": "_receiver",
          "type": "address"
        },
        {
          "internalType": "bytes",
          "name": "_encryptedSymmetricKey",
          "type": "bytes"
        }
      ],
      "name": "grantAccess",
      "outputs": [],
      "stateMutability": "nonpayable",
      "type": "function"
    },
    {
      "inputs": [
        {
          "internalType": "address",
          "name": "_receiver",
          "type": "address"
        }
      ],
      "name": "revokeAccess",
      "outputs": [],
      "stateMutability": "nonpayable",
      "type": "function"
    },
    {
      "inputs": [
        {
          "internalType": "address",
          "name": "_patientAddress",
          "type": "address"
        }
      ],
      "name": "getRecordCount",
      "outputs": [
        {
          "internalType": "uint256",
          "name": "",
          "type": "uint256"
        }
      ],
      "stateMutability": "view",
      "type": "function",
      "constant": true
    },
    {
      "inputs": [
        {
          "internalType": "address",
          "name": "_patientAddress",
          "type": "address"
        },
        {
          "internalType": "uint256",
          "name": "_index",
          "type": "uint256"
        }
      ],
      "name": "getRecordByIndex",
      "outputs": [
        {
          "internalType": "bytes32",
          "name": "",
          "type": "bytes32"
        },
        {
          "internalType": "string",
          "name": "",
          "type": "string"
        },
        {
          "internalType": "uint256",
          "name": "",
          "type": "uint256"
        },
        {
          "internalType": "string",
          "name": "",
          "type": "string"
        }
      ],
      "stateMutability": "view",
      "type": "function",
      "constant": true
    },
    {
      "inputs": [
        {
          "internalType": "address",
          "name": "_patientAddress",
          "type": "address"
        }
      ],
      "name": "getEncryptedSymmetricKey",
      "outputs": [
        {
          "internalType": "bytes",
          "name": "",
          "type": "bytes"
        }
      ],
      "stateMutability": "view",
      "type": "function",
      "constant": true
    }
  ],
  "bytecode": "0x608060405234801561001057600080fd5b50611ba1806100206000396000f3fe608060405234801561001057600080fd5b506004361061007d5760003560e01c806399cb015a1161005b57806399cb015a146100ea578063da246e951461011a578063dd006d531461014c578063e68cc4a3146101685761007d565b8063484a861b14610082578063582143081461009e57806385e68531146100ce575b600080fd5b61009c60048036038101906100979190610ff8565b61019b565b005b6100b860048036038101906100b39190611054565b6103be565b6040516100c5919061109a565b60405180910390f35b6100e860048036038101906100e39190611054565b610452565b005b61010460048036038101906100ff9190611054565b610613565b6040516101119190611134565b60405180910390f35b610134600480360381019061012f9190611156565b6107ba565b604051610143939291906111b1565b60405180910390f35b610166600480360381019061016191906112c6565b610886565b005b610182600480360381019061017d919061137d565b610a00565b6040516101929493929190611421565b60405180910390f35b600073ffffffffffffffffffffffffffffffffffffffff168273ffffffffffffffffffffffffffffffffffffffff160361020a576040517f08c379a0000000000000000000000000000000000000000000000000000000008152600401610201906114c0565b60405180910390fd5b3373ffffffffffffffffffffffffffffffffffffffff168273ffffffffffffffffffffffffffffffffffffffff1603610278576040517f08c379a000000000000000000000000000000000000000000000000000000000815260040161026f9061152c565b60405180910390fd5b604051806060016040528082815260200142815260200160001515815250600160003373ffffffffffffffffffffffffffffffffffffffff1673ffffffffffffffffffffffffffffffffffffffff16815260200190815260200160002060008473ffffffffffffffffffffffffffffffffffffffff1673ffffffffffffffffffffffffffffffffffffffff16815260200190815260200160002060008201518160000190816103279190611758565b506020820151816001015560408201518160020160006101000a81548160ff0219169083151502179055509050508173ffffffffffffffffffffffffffffffffffffffff163373ffffffffffffffffffffffffffffffffffffffff167f65d0cc1e52d49938ca4ad9f423c79c1b84d914b9a683fbc5d3f93ac3cc5635f5426040516103b2919061109a565b60405180910390a35050565b60006103ca8233610c9f565b610409576040517f08c379a000000000000000000000000000000000000000000000000000000000815260040161040090611876565b60405180910390fd5b6000808373ffffffffffffffffffffffffffffffffffffffff1673ffffffffffffffffffffffffffffffffffffffff168152602001908152602001600020805490509050919050565b6000600160003373ffffffffffffffffffffffffffffffffffffffff1673ffffffffffffffffffffffffffffffffffffffff16815260200190815260200160002060008373ffffffffffffffffffffffffffffffffffffffff1673ffffffffffffffffffffffffffffffffffffffff1681526020019081526020016000206001015403610514576040517f08c379a000000000000000000000000000000000000000000000000000000000815260040161050b906118e2565b60405180910390fd5b60018060003373ffffffffffffffffffffffffffffffffffffffff1673ffffffffffffffffffffffffffffffffffffffff16815260200190815260200160002060008373ffffffffffffffffffffffffffffffffffffffff1673ffffffffffffffffffffffffffffffffffffffff16815260200190815260200160002060020160006101000a81548160ff0219169083151502179055508073ffffffffffffffffffffffffffffffffffffffff163373ffffffffffffffffffffffffffffffffffffffff167f6f6a404ffd2cea4713256a4fd9ce99c8cf8cf32d85c2bb8061d1603ff57d50c342604051610608919061109a565b60405180910390a350565b60606000600160008473ffffffffffffffffffffffffffffffffffffffff1673ffffffffffffffffffffffffffffffffffffffff16815260200190815260200160002060003373ffffffffffffffffffffffffffffffffffffffff1673ffffffffffffffffffffffffffffffffffffffff1681526020019081526020016000206040518060600160405290816000820180546106ae9061157b565b80601f01602080910402602001604051908101604052809291908181526020018280546106da9061157b565b80156107275780601f106106fc57610100808354040283529160200191610727565b820191906000526020600020905b81548152906001019060200180831161070a57829003601f168201915b50505050508152602001600182015481526020016002820160009054906101000a900460ff1615151515815250509050600081602001511415801561076e57508060400151155b6107ad576040517f08c379a00000000000000000000000000000000000000000000000000000000081526004016107a490611876565b60405180910390fd5b8060000151915050919050565b6001602052816000526040600020602052806000526040600020600091509150508060000180546107ea9061157b565b80601f01602080910402602001604051908101604052809291908181526020018280546108169061157b565b80156108635780601f1061083857610100808354040283529160200191610863565b820191906000526020600020905b81548152906001019060200180831161084657829003601f168201915b5050505050908060010154908060020160009054906101000a900460ff16905083565b600060405180608001604052808581526020018481526020014281526020018381525090506000803373ffffffffffffffffffffffffffffffffffffffff1673ffffffffffffffffffffffffffffffffffffffff168152602001908152602001600020819080600181540180825580915050600190039060005260206000209060040201600090919091909150600082015181600001556020820151816001019081610932919061195d565b50604082015181600201556060820151816003019081610952919061195d565b505050600060016000803373ffffffffffffffffffffffffffffffffffffffff1673ffffffffffffffffffffffffffffffffffffffff168152602001908152602001600020805490506109a59190611a5e565b90503373ffffffffffffffffffffffffffffffffffffffff167fd66c38b23145d40e625147d3ca2fdf4b5bb264305ea8faa13a19d31cceacfc718285426040516109f193929190611a92565b60405180910390a25050505050565b6000606060006060610a128633610c9f565b610a51576040517f08c379a0000000000000000000000000000000000000000000000000000000008152600401610a4890611876565b60405180910390fd5b6000808773ffffffffffffffffffffffffffffffffffffffff1673ffffffffffffffffffffffffffffffffffffffff168152602001908152602001600020805490508510610ad4576040517f08c379a0000000000000000000000000000000000000000000000000000000008152600401610acb90611b1c565b60405180910390fd5b60008060008873ffffffffffffffffffffffffffffffffffffffff1673ffffffffffffffffffffffffffffffffffffffff1681526020019081526020016000208681548110610b2657610b25611b3c565b5b906000526020600020906004020160405180608001604052908160008201548152602001600182018054610b599061157b565b80601f0160208091040260200160405190810160405280929190818152602001828054610b859061157b565b8015610bd25780601f10610ba757610100808354040283529160200191610bd2565b820191906000526020600020905b815481529060010190602001808311610bb557829003601f168201915b5050505050815260200160028201548152602001600382018054610bf59061157b565b80601f0160208091040260200160405190810160405280929190818152602001828054610c219061157b565b8015610c6e5780601f10610c4357610100808354040283529160200191610c6e565b820191906000526020600020905b815481529060010190602001808311610c5157829003601f168201915b5050505050815250509050806000015181602001518260400151836060015194509450945094505092959194509250565b60008173ffffffffffffffffffffffffffffffffffffffff168373ffffffffffffffffffffffffffffffffffffffff1603610cdd5760019050610e3a565b6000600160008573ffffffffffffffffffffffffffffffffffffffff1673ffffffffffffffffffffffffffffffffffffffff16815260200190815260200160002060008473ffffffffffffffffffffffffffffffffffffffff1673ffffffffffffffffffffffffffffffffffffffff168152602001908152602001600020604051806060016040529081600082018054610d769061157b565b80601f0160208091040260200160405190810160405280929190818152602001828054610da29061157b565b8015610def5780601f10610dc457610100808354040283529160200191610def565b820191906000526020600020905b815481529060010190602001808311610dd257829003601f168201915b50505050508152602001600182015481526020016002820160009054906101000a900460ff16151515158152505090506000816020015114158015610e3657508060400151155b9150505b92915050565b6000604051905090565b600080fd5b600080fd5b600073ffffffffffffffffffffffffffffffffffffffff82169050919050565b6000610e7f82610e54565b9050919050565b610e8f81610e74565b8114610e9a57600080fd5b50565b600081359050610eac81610e86565b92915050565b600080fd5b600080fd5b6000601f19601f8301169050919050565b7f4e487b7100000000000000000000000000000000000000000000000000000000600052604160045260246000fd5b610f0582610ebc565b810181811067ffffffffffffffff82111715610f2457610f23610ecd565b5b80604052505050565b6000610f37610e40565b9050610f438282610efc565b919050565b600067ffffffffffffffff821115610f6357610f62610ecd565b5b610f6c82610ebc565b9050602081019050919050565b82818337600083830152505050565b6000610f9b610f9684610f48565b610f2d565b905082815260208101848484011115610fb757610fb6610eb7565b5b610fc2848285610f79565b509392505050565b600082601f830112610fdf57610fde610eb2565b5b8135610fef848260208601610f88565b91505092915050565b6000806040838503121561100f5761100e610e4a565b5b600061101d85828601610e9d565b925050602083013567ffffffffffffffff81111561103e5761103d610e4f565b5b61104a85828601610fca565b9150509250929050565b60006020828403121561106a57611069610e4a565b5b600061107884828501610e9d565b91505092915050565b6000819050919050565b61109481611081565b82525050565b60006020820190506110af600083018461108b565b92915050565b600081519050919050565b600082825260208201905092915050565b60005b838110156110ef5780820151818401526020810190506110d4565b60008484015250505050565b6000611106826110b5565b61111081856110c0565b93506111208185602086016110d1565b61112981610ebc565b840191505092915050565b6000602082019050818103600083015261114e81846110fb565b905092915050565b6000806040838503121561116d5761116c610e4a565b5b600061117b85828601610e9d565b925050602061118c85828601610e9d565b9150509250929050565b60008115159050919050565b6111ab81611196565b82525050565b600060608201905081810360008301526111cb81866110fb565b90506111da602083018561108b565b6111e760408301846111a2565b949350505050565b6000819050919050565b611202816111ef565b811461120d57600080fd5b50565b60008135905061121f816111f9565b92915050565b600067ffffffffffffffff8211156112405761123f610ecd565b5b61124982610ebc565b9050602081019050919050565b600061126961126484611225565b610f2d565b90508281526020810184848401111561128557611284610eb7565b5b611290848285610f79565b509392505050565b600082601f8301126112ad576112ac610eb2565b5b81356112bd848260208601611256565b91505092915050565b6000806000606084860312156112df576112de610e4a565b5b60006112ed86828701611210565b935050602084013567ffffffffffffffff81111561130e5761130d610e4f565b5b61131a86828701611298565b925050604084013567ffffffffffffffff81111561133b5761133a610e4f565b5b61134786828701611298565b9150509250925092565b61135a81611081565b811461136557600080fd5b50565b60008135905061137781611351565b92915050565b6000806040838503121561139457611393610e4a565b5b60006113a285828601610e9d565b92505060206113b385828601611368565b9150509250929050565b6113c6816111ef565b82525050565b600081519050919050565b600082825260208201905092915050565b60006113f3826113cc565b6113fd81856113d7565b935061140d8185602086016110d1565b61141681610ebc565b840191505092915050565b600060808201905061143660008301876113bd565b818103602083015261144881866113e8565b9050611457604083018561108b565b818103606083015261146981846113e8565b905095945050505050565b7f496e76616c69642072656365697665722e000000000000000000000000000000600082015250565b60006114aa6011836113d7565b91506114b582611474565b602082019050919050565b600060208201905081810360008301526114d98161149d565b9050919050565b7f43616e6e6f74206772616e7420746f2073656c662e0000000000000000000000600082015250565b60006115166015836113d7565b9150611521826114e0565b602082019050919050565b6000602082019050818103600083015261154581611509565b9050919050565b7f4e487b7100000000000000000000000000000000000000000000000000000000600052602260045260246000fd5b6000600282049050600182168061159357607f821691505b6020821081036115a6576115a561154c565b5b50919050565b60008190508160005260206000209050919050565b60006020601f8301049050919050565b600082821b905092915050565b60006008830261160e7fffffffffffffffffffffffffffffffffffffffffffffffffffffffffffffffff826115d1565b61161886836115d1565b95508019841693508086168417925050509392505050565b6000819050919050565b600061165561165061164b84611081565b611630565b611081565b9050919050565b6000819050919050565b61166f8361163a565b61168361167b8261165c565b8484546115de565b825550505050565b600090565b61169861168b565b6116a3818484611666565b505050565b5b818110156116c7576116bc600082611690565b6001810190506116a9565b5050565b601f82111561170c576116dd816115ac565b6116e6846115c1565b810160208510156116f5578190505b611709611701856115c1565b8301826116a8565b50505b505050565b600082821c905092915050565b600061172f60001984600802611711565b1980831691505092915050565b6000611748838361171e565b9150826002028217905092915050565b611761826110b5565b67ffffffffffffffff81111561177a57611779610ecd565b5b611784825461157b565b61178f8282856116cb565b600060209050601f8311600181146117c257600084156117b0578287015190505b6117ba858261173c565b865550611822565b601f1984166117d0866115ac565b60005b828110156117f8578489015182556001820191506020850194506020810190506117d3565b868310156118155784890151611811601f89168261171e565b8355505b6001600288020188555050505b505050505050565b7f4163636573732064656e6965642e000000000000000000000000000000000000600082015250565b6000611860600e836113d7565b915061186b8261182a565b602082019050919050565b6000602082019050818103600083015261188f81611853565b9050919050565b7f4e6f20616374697665206772616e742e00000000000000000000000000000000600082015250565b60006118cc6010836113d7565b91506118d782611896565b602082019050919050565b600060208201905081810360008301526118fb816118bf565b9050919050565b60008190508160005260206000209050919050565b601f8211156119585761192981611902565b611932846115c1565b81016020851015611941578190505b61195561194d856115c1565b8301826116a8565b50505b505050565b611966826113cc565b67ffffffffffffffff81111561197f5761197e610ecd565b5b611989825461157b565b611994828285611917565b600060209050601f8311600181146119c757600084156119b5578287015190505b6119bf858261173c565b865550611a27565b601f1984166119d586611902565b60005b828110156119fd578489015182556001820191506020850194506020810190506119d8565b86831015611a1a5784890151611a16601f89168261171e565b8355505b6001600288020188555050505b505050505050565b7f4e487b7100000000000000000000000000000000000000000000000000000000600052601160045260246000fd5b6000611a6982611081565b9150611a7483611081565b9250828203905081811115611a8c57611a8b611a2f565b5b92915050565b6000606082019050611aa7600083018661108b565b8181036020830152611ab981856113e8565b9050611ac8604083018461108b565b949350505050565b7f496e76616c696420696e6465782e000000000000000000000000000000000000600082015250565b6000611b06600e836113d7565b9150611b1182611ad0565b602082019050919050565b60006020820190508181036000830152611b3581611af9565b9050919050565b7f4e487b7100000000000000000000000000000000000000000000000000000000600052603260045260246000fdfea264697066735822122093b7854da664ade8e5ccef2eb611cf890b6d53c2c740ad13a645d96576a9784864736f6c63430008130033",
  "immutableReferences": {},
  "source": "// SPDX-License-Identifier: MIT\npragma solidity ^0.8.0;\n\ncontract MediChain {\n    struct EHRRecord {\n        bytes32 dataHash;\n        string offChainAddress;\n        uint256 timestamp;\n        string fileName; // THM MI:  hin th tn file cho d nhn\n    }\n\n    struct AccessGrant {\n        bytes encryptedSymmetricKey;\n        uint256 grantTimestamp;\n        bool revoked;\n    }\n\n    // THAY I QUAN TRNG: Lu tr mt MNG cc bn ghi cho mi bnh nhn\n    mapping(address => EHRRecord[]) private patientRecords;\n\n    mapping(address => mapping(address => AccessGrant)) public patientAccessGrants;\n\n    // Event cp nht thm fileName v recordId\n    event EHRRegistered(address indexed patient, uint256 recordId, string fileName, uint256 timestamp);\n    event AccessGranted(address indexed patient, address indexed receiver, uint256 timestamp);\n    event AccessRevoked(address indexed patient, address indexed receiver, uint256 timestamp);\n\n    // Hm: ng k thm h s mi (PUSH vo mng)\n    function registerEHR(bytes32 _dataHash, string memory _offChainAddress, string memory _fileName) public {\n        EHRRecord memory newRecord = EHRRecord({\n            dataHash: _dataHash,\n            offChainAddress: _offChainAddress,\n            timestamp: block.timestamp,\n            fileName: _fileName\n        });\n\n        // Thm vo cui mng ca ngi gi\n        patientRecords[msg.sender].push(newRecord);\n        uint256 newRecordId = patientRecords[msg.sender].length - 1;\n\n        emit EHRRegistered(msg.sender, newRecordId, _fileName, block.timestamp);\n    }\n\n    // Hm: Cp quyn (Khng i)\n    function grantAccess(address _receiver, bytes memory _encryptedSymmetricKey) public {\n        require(_receiver != address(0), \"Invalid receiver.\");\n        require(_receiver != msg.sender, \"Cannot grant to self.\");\n\n        patientAccessGrants[msg.sender][_receiver] = AccessGrant({\n            encryptedSymmetricKey: _encryptedSymmetricKey,\n            grantTimestamp: block.timestamp,\n            revoked: false\n        });\n        emit AccessGranted(msg.sender, _receiver, block.timestamp);\n    }\n\n    // Hm: Thu hi quyn (Khng i)\n    function revokeAccess(address _receiver) public {\n        require(patientAccessGrants[msg.sender][_receiver].grantTimestamp != 0, \"No active grant.\");\n        patientAccessGrants[msg.sender][_receiver].revoked = true;\n        emit AccessRevoked(msg.sender, _receiver, block.timestamp);\n    }\n\n    // --- CC HM TRUY VN MI  H TR DANH SCH ---\n\n    // Hm ph tr kim tra quyn\n    function hasAccess(address _patient, address _viewer) internal view returns (bool) {\n        if (_patient == _viewer) return true; // Chnh ch c xem ca mnh\n        AccessGrant memory grant = patientAccessGrants[_patient][_viewer];\n        return (grant.grantTimestamp != 0 && !grant.revoked);\n    }\n\n    // 1. Ly tng s lng h s ca mt bnh nhn\n    function getRecordCount(address _patientAddress) public view returns (uint256) {\n        require(hasAccess(_patientAddress, msg.sender), \"Access denied.\");\n        return patientRecords[_patientAddress].length;\n    }\n\n    // 2. Ly thng tin mt h s c th theo ch mc (index)\n    function getRecordByIndex(address _patientAddress, uint256 _index) public view returns (bytes32, string memory, uint256, string memory) {\n        require(hasAccess(_patientAddress, msg.sender), \"Access denied.\");\n        require(_index < patientRecords[_patientAddress].length, \"Invalid index.\");\n\n        EHRRecord memory record = patientRecords[_patientAddress][_index];\n        // Tr v dng tuple\n        return (record.dataHash, record.offChainAddress, record.timestamp, record.fileName);\n    }\n\n    // Hm ly Key  m ha (Khng i)\n    function getEncryptedSymmetricKey(address _patientAddress) public view returns (bytes memory) {\n        AccessGrant memory grant = patientAccessGrants[_patientAddress][msg.sender];\n        require(grant.grantTimestamp != 0 && !grant.revoked, \"Access denied.\");\n        return grant.encryptedSymmetricKey;\n    }\n}",
  "sourcePath": "D:\\ATBM\\ehrApp\\contracts\\Medichain.sol",
  "compiler": {
    "name": "solc",
    "version": "0.8.19+commit.7dd6d404.Emscripten.clang"
  },
  "schemaVersion": "3.4.16",
  "updatedAt": "2025-11-28T11:36:05.281Z",
  "networkType": "ethereum",
  "devdoc": {
    "kind": "dev",
    "methods": {},
    "version": 1
  },
  "userdoc": {
    "kind": "user",
    "methods": {},
    "version": 1
  }
}